{
  "contractName": "Grocery",
  "abi": [
    {
      "anonymous": false,
      "inputs": [
        {
          "indexed": false,
          "internalType": "string",
          "name": "name",
          "type": "string"
        },
        {
          "indexed": false,
          "internalType": "uint256",
          "name": "price",
          "type": "uint256"
        }
      ],
      "name": "ItemAdded",
      "type": "event"
    },
    {
      "anonymous": false,
      "inputs": [
        {
          "indexed": false,
          "internalType": "uint256",
          "name": "id",
          "type": "uint256"
        },
        {
          "indexed": false,
          "internalType": "string",
          "name": "name",
          "type": "string"
        },
        {
          "indexed": false,
          "internalType": "uint256",
          "name": "price",
          "type": "uint256"
        }
      ],
      "name": "ItemPurchased",
      "type": "event"
    },
    {
      "inputs": [],
      "name": "itemCount",
      "outputs": [
        {
          "internalType": "uint256",
          "name": "",
          "type": "uint256"
        }
      ],
      "stateMutability": "view",
      "type": "function"
    },
    {
      "inputs": [
        {
          "internalType": "uint256",
          "name": "",
          "type": "uint256"
        }
      ],
      "name": "items",
      "outputs": [
        {
          "internalType": "string",
          "name": "name",
          "type": "string"
        },
        {
          "internalType": "uint256",
          "name": "price",
          "type": "uint256"
        },
        {
          "internalType": "bool",
          "name": "purchased",
          "type": "bool"
        }
      ],
      "stateMutability": "view",
      "type": "function"
    },
    {
      "inputs": [
        {
          "internalType": "string",
          "name": "_name",
          "type": "string"
        },
        {
          "internalType": "uint256",
          "name": "_price",
          "type": "uint256"
        }
      ],
      "name": "addItem",
      "outputs": [],
      "stateMutability": "nonpayable",
      "type": "function"
    },
    {
      "inputs": [
        {
          "internalType": "uint256",
          "name": "_id",
          "type": "uint256"
        }
      ],
      "name": "purchaseItem",
      "outputs": [],
      "stateMutability": "payable",
      "type": "function"
    }
  ],
  "bytecode": "0x608060405234801561001057600080fd5b50610c03806100206000396000f3fe60806040526004361061003f5760003560e01c806362d6bbdf146100445780636bfb0d011461006d578063bfb231d214610098578063d38ea5bf146100d7575b600080fd5b34801561005057600080fd5b5061006b60048036038101906100669190610523565b6100f3565b005b34801561007957600080fd5b506100826101bd565b60405161008f919061058e565b60405180910390f35b3480156100a457600080fd5b506100bf60048036038101906100ba91906105a9565b6101c3565b6040516100ce93929190610670565b60405180910390f35b6100f160048036038101906100ec91906105a9565b610282565b005b60016000815480929190610106906106dd565b9190505550604051806060016040528083815260200182815260200160001515815250600080600154815260200190815260200160002060008201518160000190816101529190610931565b506020820151816001015560408201518160020160006101000a81548160ff0219169083151502179055509050507fe4cee8b4b346e9fc68b7e9892799bbd7758269373bcf9da8bcb20e89ade95c1d82826040516101b1929190610a03565b60405180910390a15050565b60015481565b60006020528060005260406000206000915090508060000180546101e690610754565b80601f016020809104026020016040519081016040528092919081815260200182805461021290610754565b801561025f5780601f106102345761010080835404028352916020019161025f565b820191906000526020600020905b81548152906001019060200180831161024257829003601f168201915b5050505050908060010154908060020160009054906101000a900460ff16905083565b60008060008381526020019081526020016000209050348160010154146102de576040517f08c379a00000000000000000000000000000000000000000000000000000000081526004016102d590610a7f565b60405180910390fd5b8060020160009054906101000a900460ff1615610330576040517f08c379a000000000000000000000000000000000000000000000000000000000815260040161032790610aeb565b60405180910390fd5b60018160020160006101000a81548160ff0219169083151502179055507f0ba4e4da46d4c5603cb58e47ef348e505aced9642e36b768e101e85f2765d3188282600001836001015460405161038793929190610b8f565b60405180910390a15050565b6000604051905090565b600080fd5b600080fd5b600080fd5b600080fd5b6000601f19601f8301169050919050565b7f4e487b7100000000000000000000000000000000000000000000000000000000600052604160045260246000fd5b6103fa826103b1565b810181811067ffffffffffffffff82111715610419576104186103c2565b5b80604052505050565b600061042c610393565b905061043882826103f1565b919050565b600067ffffffffffffffff821115610458576104576103c2565b5b610461826103b1565b9050602081019050919050565b82818337600083830152505050565b600061049061048b8461043d565b610422565b9050828152602081018484840111156104ac576104ab6103ac565b5b6104b784828561046e565b509392505050565b600082601f8301126104d4576104d36103a7565b5b81356104e484826020860161047d565b91505092915050565b6000819050919050565b610500816104ed565b811461050b57600080fd5b50565b60008135905061051d816104f7565b92915050565b6000806040838503121561053a5761053961039d565b5b600083013567ffffffffffffffff811115610558576105576103a2565b5b610564858286016104bf565b92505060206105758582860161050e565b9150509250929050565b610588816104ed565b82525050565b60006020820190506105a3600083018461057f565b92915050565b6000602082840312156105bf576105be61039d565b5b60006105cd8482850161050e565b91505092915050565b600081519050919050565b600082825260208201905092915050565b60005b838110156106105780820151818401526020810190506105f5565b60008484015250505050565b6000610627826105d6565b61063181856105e1565b93506106418185602086016105f2565b61064a816103b1565b840191505092915050565b60008115159050919050565b61066a81610655565b82525050565b6000606082019050818103600083015261068a818661061c565b9050610699602083018561057f565b6106a66040830184610661565b949350505050565b7f4e487b7100000000000000000000000000000000000000000000000000000000600052601160045260246000fd5b60006106e8826104ed565b91507fffffffffffffffffffffffffffffffffffffffffffffffffffffffffffffffff820361071a576107196106ae565b5b600182019050919050565b7f4e487b7100000000000000000000000000000000000000000000000000000000600052602260045260246000fd5b6000600282049050600182168061076c57607f821691505b60208210810361077f5761077e610725565b5b50919050565b60008190508160005260206000209050919050565b60006020601f8301049050919050565b600082821b905092915050565b6000600883026107e77fffffffffffffffffffffffffffffffffffffffffffffffffffffffffffffffff826107aa565b6107f186836107aa565b95508019841693508086168417925050509392505050565b6000819050919050565b600061082e610829610824846104ed565b610809565b6104ed565b9050919050565b6000819050919050565b61084883610813565b61085c61085482610835565b8484546107b7565b825550505050565b600090565b610871610864565b61087c81848461083f565b505050565b5b818110156108a057610895600082610869565b600181019050610882565b5050565b601f8211156108e5576108b681610785565b6108bf8461079a565b810160208510156108ce578190505b6108e26108da8561079a565b830182610881565b50505b505050565b600082821c905092915050565b6000610908600019846008026108ea565b1980831691505092915050565b600061092183836108f7565b9150826002028217905092915050565b61093a826105d6565b67ffffffffffffffff811115610953576109526103c2565b5b61095d8254610754565b6109688282856108a4565b600060209050601f83116001811461099b5760008415610989578287015190505b6109938582610915565b8655506109fb565b601f1984166109a986610785565b60005b828110156109d1578489015182556001820191506020850194506020810190506109ac565b868310156109ee57848901516109ea601f8916826108f7565b8355505b6001600288020188555050505b505050505050565b60006040820190508181036000830152610a1d818561061c565b9050610a2c602083018461057f565b9392505050565b7f496e636f727265637420616d6f756e742073656e742e00000000000000000000600082015250565b6000610a696016836105e1565b9150610a7482610a33565b602082019050919050565b60006020820190508181036000830152610a9881610a5c565b9050919050565b7f4974656d20616c7265616479207075726368617365642e000000000000000000600082015250565b6000610ad56017836105e1565b9150610ae082610a9f565b602082019050919050565b60006020820190508181036000830152610b0481610ac8565b9050919050565b60008154610b1881610754565b610b2281866105e1565b94506001821660008114610b3d5760018114610b5357610b86565b60ff198316865281151560200286019350610b86565b610b5c85610785565b60005b83811015610b7e57815481890152600182019150602081019050610b5f565b808801955050505b50505092915050565b6000606082019050610ba4600083018661057f565b8181036020830152610bb68185610b0b565b9050610bc5604083018461057f565b94935050505056fea264697066735822122061a5166313c97751b492326c13d08e110bec78425d7944086b47ddb0eb0b3f0b64736f6c63430008130033",
  "immutableReferences": {},
  "source": "// SPDX-License-Identifier: MIT\npragma solidity ^0.8.0;\n\ncontract Grocery {\n    struct Item {\n        string name;\n        uint256 price;\n        bool purchased;\n    }\n\n    mapping(uint256 => Item) public items;\n    uint256 public itemCount;\n\n    event ItemAdded(string name, uint256 price);\n    event ItemPurchased(uint256 id, string name, uint256 price);\n\n    function addItem(string memory _name, uint256 _price) public {\n        itemCount++;\n        items[itemCount] = Item(_name, _price, false);\n        emit ItemAdded(_name, _price);\n    }\n\n    function purchaseItem(uint256 _id) public payable {\n        Item storage item = items[_id];\n        require(item.price == msg.value, \"Incorrect amount sent.\");\n        require(!item.purchased, \"Item already purchased.\");\n\n        item.purchased = true;\n        emit ItemPurchased(_id, item.name, item.price);\n    }\n}\n\n",
  "sourcePath": "C:\\Users\\impbp\\Desktop\\refillable\\src\\contracts\\Grocery.sol",
  "compiler": {
    "name": "solc",
    "version": "0.8.19+commit.7dd6d404.Emscripten.clang"
  },
  "schemaVersion": "3.4.13",
  "updatedAt": "2023-04-13T05:58:40.809Z",
  "devdoc": {
    "kind": "dev",
    "methods": {},
    "version": 1
  },
  "userdoc": {
    "kind": "user",
    "methods": {},
    "version": 1
  }
}